:020000042000DA
:100000006F00001A00000000000000006F0060197F
:100010000000000000000000000000006F00401819
:100020000000000000000000000000005D7106C03C
:1000300016C21AC41EC62AC82ECA32CC36CE3AD030
:100040003ED242D446D672D876DA7ADC7EDE73258A
:100050001034F3250030AAC0AEC2736651BEB2C4DC
:1000600073E540BE6341050273600430B7050020AC
:10007000AA9583A5050DE78005007370043073E52C
:1000800040BEE35305FE06459645264673101534DB
:1000900073900530731056BE824092422243B243A1
:1000A000D2456246F246025792572258B258425EF3
:1000B000D25E625FF25F732540BEE35005FA4245AF
:1000C0006161730020301300000013000000010084
:1000D000A4010020A4010020A4010020A40100200C
:1000E000A4010020A4010020A4010020A4010020FC
:1000F000A4010020A4010020A4010020A4010020EC
:10010000A4010020A4010020A4010020A4010020DB
:10011000A4010020A4010020A4010020A4010020CB
:10012000A4010020A4010020A4010020A4010020BB
:10013000A4010020A4010020A4010020A4010020AB
:10014000A4010020A4010020A4010020A40100209B
:10015000A4010020A4010020A4010020A40100208B
:10016000A4010020A4010020A4010020A40100207B
:10017000A4010020A4010020A4010020A40100206B
:10018000A4010020A4010020A4010020A40100205B
:10019000A4010020A4010020A4010020A40100204B
:1001A00002900290098102900100130000001300E8
:1001B0000000130000001300000013000000000006
:1001C00006005250ABB3605378AF00200600525087
:1001D000861C030294AF0020060052505422A29DB8
:1001E000A0AF0020F2EB88712CBE00204CBE002096
:1001F0007C02002090A31AE7D3DEFFFF4201011129
:100200004403000022020020002008200302000016
:1002100000000020FF06000000000000793512AB4E
:1002200009A097D100009381A1BC172108001301F8
:1002300061DD170500001305F5DC731055307325DB
:1002400040F135E197C50000938545E017C60000F1
:100250001306C63F21A023A005009105E39DC5FE1E
:10026000EF60D0183126EF6010180290FDBF884172
:1002700008C291051106E36CD6FE828050BE0020B4
:1002800050BE002048C000200000082000000820C8
:10029000000008200010082000100820001008208E
:1002A00000000000828021651305C5DF0285010082
:1002B000B70700D09C43011122CC26CA4AC84EC6BB
:1002C00006CEBE842A842E89B28921A80F0030036D
:1002D0002300070073A007304A85CE85EF407005E4
:1002E00031E51C407377043093963700B316D0285D
:1002F000F19B2FA6D744758E6DFE0F003003830649
:100300004400937787001840E3D206FC2302940050
:100310000F0030032300070073A00730F24062444F
:10032000D2444249B249054505618280F2406244A7
:10033000D2444249B2490145056182801C4173772C
:10034000043093963700B316D028F19B2FA8D744DA
:100350003378D800E31C08FE0F0030038306450005
:1003600093778700184163C206020F003003230011
:10037000070073A00730B70700D003870700814745
:100380006314D7003E85828025B7B70600D094421B
:100390002302D5000F0030032300070073A00730AD
:1003A00085473E8582801C417377043093963700E1
:1003B000B316D028F19B2FA6D744758E6DFE0F0083
:1003C0003003FD572302F5001C410F00300323804A
:1003D0000700218B732007303320100082802971A1
:1003E000130341122322B1122324C1122326D11256
:1003F0002A869A86080893050010232E11102328B8
:10040000E112232AF112232C0113232E11131AC6F1
:10041000EF600077635AA0020398C183930700102E
:100420003345F50A1408014637070740B54883C528
:100430000600630FB8001C4F93F70702EDFF0CC3D3
:1004400005068506E345A6FE8320C1113161828041
:100450001C4F93F70702EDFF23201701E9BFB7C731
:10046000002083A607D8B787379E9387179B3365ED
:10047000D5023787379E1307979B03C6C181B7CE36
:10048000002037C8002037C30020054E23A8BE5ED9
:10049000A306C35F36953365D502B307F50223A6DD
:1004A000A180B98F2324F8FE79C20111154506CE2B
:1004B00022CCEF407025EFA0E038B7C7002083A51D
:1004C000C7C9EF90706BB7C7002083A507CA2A84FD
:1004D000EFA0E017B7C7002003A707CA63430500D2
:1004E00022873A853AC6EFA000279377F50F3E851D
:1004F0003EC4EFA0802BAA853245EF40F04D37C7B0
:100500000020832547CAEF407062EFA0C024A247B5
:100510001375F50F37870A4092075D8D856748C3CD
:10052000FD171CCB930787049C43B7960A400546EA
:100530009397B768B3C70708BCC61C43B7960A4071
:10054000B377F6409CC28547A38EF180EF40A0733D
:100550009D67938707D6AA97F240624433B5A700F8
:100560002E9523ACA18023AAF18005618280828030
:10057000517186D7A2D5A6D3CAD1CECFD2CDD6CBF4
:10058000DAC9DEC7E2C5E6C3EAC16EDFF37704303D
:10059000EF60B00871454D2381451305007DEF40A4
:1005A000A06F37B500201305C5C1153D37B5002034
:1005B0001305C5C42D35B7B70020138587C9053588
:1005C000B7C7002083AD07D8B7B70020138C074CFE
:1005D000B7B700203ED4E2841389C7D00144635AE0
:1005E000B0019040A2854A850504D53BA104E39A59
:1005F0008DFEB7B700201385C7E9D533EF40A0685B
:10060000638705521306803E8146EF802008AA8743
:10061000B3A7F7208A0737C70020232AF75EEF40E9
:100620008066B7C7002083A707CBB7C6002037C7AF
:10063000002083A686CA8329C7CA3ECE37B70020CA
:10064000B757621037C4002013074703938737DD7D
:1006500036D6130444373AC63ECCB7CB0020B7CCCD
:100660000020E28A130CB02B568DB7C70020938769
:1006700087FE3EC2B7C70020938747373EC4EF408E
:100680008060638C05461306803E8146EF80000043
:1006900083C7DB5E3325A520931425008DE3B7C700
:1006A000002083C7C75E81EFB7C7002003A7475F5D
:1006B0008967938787323387E44063EBE744EF3001
:1006C000206483A7018137C700201306C7FEB3E764
:1006D000A721DC4337C70020A6851305C7328297C0
:1006E00083C7DB5E6380074283A7C1801246224531
:1006F000B3E7A721DC43A685829703A90C5F130803
:10070000F00F33892441636E2C0113188900B777E9
:100710009F5D33082841938717393338F8021358FF
:100720008800B7C700209386C732B7C70020B788B4
:10073000808093854737B7C70020938818081386B1
:10074000474F03CF060083C7050083CE160003C3BF
:100750001500B387E741B38707033303D34103C5CC
:10076000260003C725008D068D05098F0D06339ED3
:100770001703330303033E9E135E7E40FD87B307DA
:10078000FE403E9FA30EE6FFB3171303135FF34132
:10079000330707039A979D87B387E741BE9E230FD0
:1007A000D6FFB3171703135EF741BA979D87B38738
:1007B000C7413E95A30FA6FEE315D4F8B7C70020A6
:1007C0001385474FE12963742C0383A7C18037C782
:1007D0000020232A975E23A8F180B7C7002083A7B3
:1007E00087FE37C70020A3860B5E2326F7FE370758
:1007F00007401C4FC18BA9E3832A870193FA0A01A2
:10080000E39C0AFE1843130600051377F70F9306BF
:1008100007FE6367D600B247B3C6F62094428286CD
:10082000130507FDA54763E9A7006357B50183C713
:10083000DB5E99E3A685253183C7D181E38107E497
:10084000EF40604483A78181E3E1F5E26396B7005E
:1008500083A74181E36BF5E0B7870A409C43379754
:100860000A40EA8A858B1CC3A38E0180E5BBB7B71B
:100870000020138587C9A536A2576A898144938AC7
:10088000C7D0635BB00103260900A68556858504A1
:10089000B9362109E3999DFEB7B700201385C7E952
:1008A0003D3E59BFFD2661479547636CA7263E85AF
:1008B000E12EC526B7B70020AA85138547D2053695
:1008C000A5BFC12E1307B00E9307F00FE361A7FE7B
:1008D000C9269307450193F7F70FD1BF37C700200B
:1008E0008347C75EB7B600209385C6C093C717007D
:1008F0002306F75E89C7B7B70020938507C0B7B74F
:100900000020138547D1E13C05BF83C7DB5EE3953B
:1009100007F203A50181A6857D15913631BF83C7F6
:10092000DB5EE39B07F003A50181A6850505053E77
:1009300021B71545EF40405D32560D672AC81307B1
:1009400097038C0828183ADAEF30E01CF32600B041
:1009500001499304C01236D04A85EF901065CE85C8
:10096000EF40D01C2A868C0828180509EF30A01A01
:10097000E31499FE8256732700B0158FB7864E1B7D
:100980009386561B3337D702935757003ED0635890
:10099000B019EA84014929A00509A10463812D1930
:1009A0008840B7B70020938587D5EFA080136DF5F9
:1009B0003369A9210329490050189305803EA810E6
:1009C0000299732700B08564938444833AD2D68514
:1009D0005018A8109D0A0299E39B9AFE1257F3271C
:1009E00000B0998F37874E1B1307571BB3B7E70229
:1009F00037B70020130507D695833ED2CD32B7B75F
:100A000000209385C7D8B7B70020138507DAC13A0D
:100A1000C247B7E51B43938535E8B3B5B702B7B70F
:100A20000020138587DBC9815D3A825A5685EF9095
:100A30007061AA844245EF90F060A6852A89EF9004
:100A4000B013EF9010762ECAF2452AC82685EF40E3
:100A5000F00DCA85EF905012EF90B0744247D24724
:100A60002A8637B50020AE86130545DDD685EFF022
:100A70001F97925A5685EF90F05CAA84AA854A8502
:100A8000EF90900FEF90F0712ECAF2452AC826859C
:100A9000EF40D009CA85EF90300EEF90907042473A
:100AA000D2472A8637B50020AE86130545E1D685A4
:100AB000EFF0FF92B7B70020138547E5EFF03F92C4
:100AC000B7B70020138507EAEFF07F91B5B383C76E
:100AD000C181B7B60020938586C193C71700238EC6
:100AE000F18089C7B7B70020938547C1B7B7002009
:100AF000138507D4EFF0BF8E81B3E2473335F5029B
:100B0000198179B6B7C700201385C732412AC5B10C
:100B100003A50181A6850505EFF07F944DB6014937
:100B200041BD852A9307C5FE93F7F70F49B3130715
:100B3000803EB357E502E9BC3971B7C5002022DC1D
:100B4000938505D72A843705205006DE26DA4AD851
:100B50004ED652D4EF6080692A89854537052050EA
:100B6000EF604065AA849945228523A29182EF30E7
:100B7000C01F0547A6852286BA8637052050EF603C
:100B8000E06F9307390013167900B2071377F40169
:100B9000D18F1180E1769386F63F2A072A04939736
:100BA000D74941661317D7299397E749558C1545BF
:100BB000B706067032C63ACC36CA3EC822CEEF40DF
:100BC000A034EF903048B7C7002083A547CBEF9003
:100BD000A07AB7C7002083A587CBEF4020602A8A80
:100BE000EF9070373344050801451DC02285EF9012
:100BF0007045AA855285EF40205EB7C7002083A5C7
:100C0000C7CBEF40A072EF9010351375F50F22059A
:100C100042044A867400A685498C3705205022C6B6
:100C2000EF60C06E370420501C400545B3979728ED
:100C30001CC0EF60607F83A64182B7070050131786
:100C4000650037C80020B70502FC3E9713864600B2
:100C50001308C8589317D500FD1523200701334604
:100C60008620C606ED8F50C3F2506254D58FE14600
:100C700014C793E797011CCB23A0A182D2544259F9
:100C8000B259225A21618280B7C700202388A7FE6B
:100C90008280B7C7002003C507FF8280B7C7002046
:100CA00083C807FF757137B30020378880800A86B4
:100CB0008A851303831713081808014E834615000D
:100CC0000347050083472500B3A6662083D60600A8
:100CD0003327672003570700B3A7672083D7070090
:100CE000B386160399050D0533071703B38717035A
:100CF000B3B606033337070393DEF6009D82239EC7
:100D0000D5FEB3B707039356F7001D83239DE5FE79
:100D1000F69613D7F7009D83239FF5FE36971C099F
:100D20003A9EE39DB7F8916737C30020938707E8A1
:100D30001303C35863EDC713B7C600201A88938600
:100D4000463E1305F00F9308001071A00507938726
:100D500007F0334707082390F600B70EFF00631A29
:100D600017098357260083D5260013F7F70F2E9710
:100D700033470708A183637CE5088507130707F05D
:100D8000B3C507082391E600B70700FF639D151B55
:100D90000357460003DE46009375F70FF295B3C57F
:100DA000050821836374B5080507938505F0334E64
:100DB00007082392B6004167130707F063181E194E
:100DC000B3E7D701D98F2320F80019061C0999062B
:100DD0001108638BC7060357060083D70600937577
:100DE000F70FAE97B3C707082183E361F5F62390A9
:100DF000F6008357260083D52600931E070113F7BC
:100E0000F70F2E9733470708A183E368E5F6239190
:100E1000E600E2070357460003DE46009375F70F2E
:100E2000F295B3C505082183E360B5F82392B600B7
:100E30002207B3E7D701D98F2320F80019061C0930
:100E400099061108E399C7F803A7018237060050F5
:100E50001A0732971C4B93965700E3CD06FE83A7E3
:100E600001829A07B29723AE670249618280378573
:100E70003E00B7C500203355C5039A889385453E8B
:100E80001308F00F19A82392F50123A0D801190621
:100E90001C09E38BC7FA990591088357060003D70D
:100EA0000500B387A70293D6870093F6F60FBA968C
:100EB000B3C6060813D707016375D800938606F0FA
:100EC00005078357260003DE25002390D500B3874E
:100ED000A702420793D6870093F6F60FF296B3C6A1
:100EE0000608C1836375D800938606F08507035E04
:100EF000460083DE45002391D500330EAE02E207A3
:100F0000336FF70093568E0093F6F60F135E0E01C3
:100F1000F696930E1E00B3CE0E08B3C60608A20EB8
:100F2000938F06F0B3EEEE01E36FD8F4D98F220E63
:100F3000B3E7C70123A0F8002392D50019061C09C6
:100F4000E39BC7F411B7AE87E207E9B572872207C2
:100F5000CDB5B7B700209387873703879701411135
:100F600022C66347073414421397D600358F935631
:100F70001701358F93155700937677002D8F63985F
:100F800006329316D700358F93561701358F931677
:100F9000570037884E1B358F1308581B333807030B
:100FA00018C2B7C600209385464D13583800334801
:100FB0000821931848003388084133070741130775
:100FC00047FBA38CE5000387A701635B072E03871C
:100FD000B7016344070618421318D70033470701C7
:100FE00013581701334707019318570013787700F8
:100FF00033471701631D08481318D7003347E8002B
:1010000013581701334707011318570033470701D7
:1010100037884E1B1308581B3338070318C2135860
:1010200038003348082193184800338808413307B3
:101030000741130747FBA38DE5000387C7016344FE
:10104000070618421318D700334707011358170132
:101050003347070113185700937877003347E800A8
:10106000639508421318D7003347E8001358170157
:1010700033470701131857003348E80037874E1BE2
:101080001307571B3337E802232006010D8333472C
:10109000E720931847003387E8403307E8401307F9
:1010A00047FB238EE5008387D70163CD07041C42ED
:1010B0001397D700B98F13D71701B98F139857001B
:1010C00013F77700B3C70701631F073A1397D700D9
:1010D000B98F13D71701B98F13975700B98F378777
:1010E0004E1B1307571B33B7E7021CC20D83334750
:1010F000E720131847003307E840998F938747FB91
:10110000A38EF5008323060083CE450003CE350071
:1011100003C3250083C8150003CF464DB7B6AAAA5E
:101120009386B6AA2E870148D14F9392D300B3C2BB
:10113000720093D71201B3C7570093935700B3C3FC
:10114000F300B3B7D302FA82034F57000144B3222E
:101150005F20B3B2D2028D83B3A7F7208A07B3878B
:10116000F3409D07C29793D2120063D45700338493
:10117000F2409392D300B3C2720093D71201B3C767
:10118000570093935700B3C3F300B3B7D302C6829B
:1011900083486700230087000144B3A25820B3B2FC
:1011A000D2028D83B3A7F7208A07B387F3409D0748
:1011B000C29793D2120063D457003384F2409392C3
:1011C000D300B3C2720093D71201B3C757009393F1
:1011D0005700B3C3F300B3B7D3029A820343770037
:1011E000A30087000144B3225320B3B2D2028D83FF
:1011F000B3A7F7208A07B387F3409D07C29793D21E
:10120000120063D457003384F2409392D300B3C2E8
:10121000720093D71201B3C7570093935700B3C31B
:10122000F300B3B7D302F282034E87002301870095
:101230000144B3225E20B3B2D2028D83B3A7F7205C
:101240008A07B387F3409D07C29793D2120063D4F5
:1012500057003384F2409392D300B3C2720093D705
:101260001201B3C7570093935700B3C3F300B3B74A
:10127000D302F682834E9700A3018700B3A25E20BB
:10128000B3B2D2028D83B3A7F7208A07B387F340A6
:101290009D07C29793D2120063D75708B382F240DA
:1012A0002302570011086305F8091507BDBD18C2D0
:1012B0000387A701B7C600209385464DE34907D0B1
:1012C00018421318D7003347070113581701334743
:1012D0000701931857001378770033471701631AF3
:1012E000081A1318D7003347E8001358170133477B
:1012F0000701131857003347070137884E1B13089F
:10130000581B3338070318C21358380033480821D4
:10131000931848003388084133070741130747FBF8
:10132000238DE5006DB1230207001108E31FF8F7D4
:101330009397D300B3C7770013D7170103C895015C
:10134000B98F1397570093F67700B98F014763D48D
:1013500006013307D840A38CE5001397D7003D8FD3
:101360009357170103C8A501B98F1397570093F638
:101370007700B98F014763D406013307D840238D26
:10138000E5001397D700B98F13D7170103C8B5012C
:10139000B98F1397570093F67700B98F014763D43D
:1013A00006013307D840A38DE5001397D700B98F06
:1013B00013D7170103C8C501B98F1397570093F6C8
:1013C0007700B98F014763D406013307D840238ED5
:1013D000E5001397D700B98F13D7170103C8D501BC
:1013E000B98F1397570093F67700B98F014763D4ED
:1013F00006013307D840A38EE500B7B600201CC213
:101400009386863937B60020138386011306063B80
:1014100093084005130E900A0DA06370FE06130793
:10142000F00FBA872300E500A300F50023010501B2
:10143000850605060D05630FD30283C70600034723
:101440000600B3C7F720AE97BA9783C7070033A744
:10145000F72013082700E3E2F8FC01488147230046
:10146000E500A300F50023010501850605060D052D
:10147000E315D3FC324441018280930717000148F1
:101480001307F00F45B71CC2B5B918C229B918C265
:101490006DB618C22DBE011122CE26CC4ACA4EC846
:1014A00052C693773500639E072023200500232230
:1014B0000500232405002326050023280500232AF0
:1014C0000500232C0500232E0500232005022322DE
:1014D0000502232405022326050223280502232AC8
:1014E0000502232C0502232E0502232005042322B6
:1014F000050437B800201308883737DFCCCC130336
:10150000F800130FDFCCF94881461546C94E0D4E41
:101510001304C003A5439309A0053949FD52930F55
:101520008002A144B3D7150333A7D620BA9733B7A7
:10153000E7030D833347E7200607998F1387E7FFFB
:101540006367E6103347E7204297369703070700A3
:10155000138AD7FF634B07003327E7202A9723001E
:101560000700A30057002301F7016366460D334AC5
:101570004A21429A369A03070A00634B0700332731
:10158000E7202A9723000700A30037012301270142
:101590001387C7FF6361E60A3347E7204297369710
:1015A00003070700634B07003327E7202A97230030
:1015B0000700A3008700230177001387B7FF636C40
:1015C000E6063347E7204297369703070700634B49
:1015D00007003327E7202A9723000700A300D7013D
:1015E0002301C7011387A7FF6367E6043347E7209A
:1015F0004297369703070700634B07003327E7201E
:101600002A9723000700A300D7012301C701E5178C
:101610006363F602B3C7F720C297B69783870700C4
:1016200063CB0700B3A7F720AA9723800700A38006
:10163000D7012381C70185069D080503E394C6EE03
:101640007244E2445249C249324A0561828063943D
:1016500097020307A300634407043327E7202A9770
:10166000130AA005A3004701394A230007002301FC
:101670004701114715B72547E39FE7FA0307A30082
:10168000634E07043327E7202A97130AC003230079
:1016900007002301F700A300470111471DB7030707
:1016A0005300634E07043327E7202A97130AC00329
:1016B000A3004701254A23000700230147010D47E6
:1016C00009B7AA871307850423800700A3800700B2
:1016D000238107008D07E319F7FE21BD030753009F
:1016E000634007043327E720330AE5004947A30096
:1016F000EA000D4723000A002301EA00C5BD0307E5
:101700000300634007043327E7202A97494AA300D0
:1017100047010D4A23000700230147010947F9B596
:101720008307030063CD0700B3A7F720AA974947B3
:10173000A380E7000D47238007002381E700894746
:10174000D1BDB307D8008387A70063CD0700B3A737
:10175000F720AA974947A380E7000D472380070099
:101760002381E70085477DB5B7C800209388485797
:10177000C68513888801468783460700050793B707
:10178000A600FD17D916F58FA30FF7FEE31607FF86
:101790001C421397D7003D8F93571701B98F1397AA
:1017A000570093F637003D8F6385061C37C800202D
:1017B0001308C8559317D700B98F13D71701B98FDE
:1017C0009396570013F73700B58F21EB9396D70008
:1017D000BD8E93D71601BD8E9397560037B7AAAA30
:1017E000BD8E1307B7AA33B7E6029397D600B58F1D
:1017F00013D31701B3C76700139E57007D53B3C7B8
:10180000C70111833327E7200E073387E640BA98D4
:101810004297238068002300F7001CC2B7C8A02F9E
:10182000428637B80020130E8601938838E81308E3
:10183000C840114383470600B3B617038D8233C7F0
:10184000D6203347D7203327D720998FB3A7F72047
:10185000860793F7F70F13CFF70FB36EEF2133E738
:10186000F7208A0EB38EEE410A07B307F7401397AD
:101870001E0013070708860793870708135F870072
:1018800093DE87007A97F6972183930EF00F33F754
:10189000EE40A183930EF00FB3F7FE40131F8700B5
:1018A000939E8700330FEF40B38EFE40130F0F0857
:1018B000938E0E0893578F0013D78E00FA97769762
:1018C000A18321836364D310B3C606219442828628
:1018D000130F900B9307F00F83C6050005068505CF
:1018E0003387E6020D05B387F60213070708935EF8
:1018F0008700769721831907933EF70FFD1EB3EEFD
:10190000EE00A30ED5FFB386E6039387070813D72F
:101910008700BA97A183AD0713B7F70F7D175D8FC7
:10192000230FE5FE9386060893D78600B697A1831A
:10193000E90713B7F70F7D175D8FA30FE5FEE31BD4
:10194000C6EF8280130F900B1307F00F71B73E871D
:10195000130FF00F9307900B41B7BA87130FF00FD7
:101960001307900B95BF3E8F1307900B9307F00F53
:10197000A5B79317D7003D8F93571701B98F93964B
:101980005700BD8EB7B7AAAA9387B7AAB3B7F60216
:101990001397D600358F135317013343E30037C82D
:1019A00000201308C855131753007D5E33476700A6
:1019B0009183B3A7F7208E07B387F640B386F8006C
:1019C000C2972380C6012380E700EDB33A8F9307C7
:1019D000900B1307F00F09B7B7B7AAAA9387B7AA56
:1019E000B3B5F50237B80020B7C8A02F130E850491
:1019F000938838E81308084211438D8193F5F50F59
:101A0000B3B615038D82B3C7D620B3C7D720B3A70B
:101A1000D720B387F540B3A7F720860793F7F70FD2
:101A200093CEF70F13968E003306D6411397870097
:101A3000B307F7401307060893870708935E8700EC
:101A400013D68700BA9E3E9693DE8E009307F00F62
:101A5000B3FED74121829307F00F33F6C74033C757
:101A6000DE21B347C6203327D721B3A7C72033478A
:101A7000E720B3C7F7200A078A07938707081307E9
:101A800007081356870093DE870032973386FE00DF
:101A900093578700135786006368D30433C6062123
:101AA0001042028681469307C00D2300E500A30083
:101AB000F5002301D500A9050D0593F5F50FE311F8
:101AC000C5F582801307C00DCDB73E879306C00DC4
:101AD0008147E1BFBA879306C00D0147F9B7BE86BB
:101AE00001479307C00DD1B7BA8681471307C00DD0
:101AF0006DBFB7D7CCCC9387D7CCB3B5F502B7B60B
:101B000000209386063B37B6002037B80020B7C8C0
:101B1000A02F138E860113068639938838E81308A0
:101B200048438D8111430347060083C70600BA97D7
:101B30009207AE9793F7F70FB3BE170393DE3E00FD
:101B400033C7DE213347D7213327D721998FB3A756
:101B5000F720860793F7F70F93CFF70F139F8F00A8
:101B6000330FFF4113978700B307F74013070F08A0
:101B700093870708935F870013DF8700BA9F3E9F14
:101B800093DF8F009307F00FB3FFF741135F8F00D0
:101B90009307F00F33FFE74133C7FF21B347EF212E
:101BA0003327F721B3A7E7213347E720B3C7F7204F
:101BB0000A078A079387070813070708135F870038
:101BC00093DF87007A97338FFF009357870013576F
:101BD0008F006368D30533CF0E21032F0F00028FD0
:101BE000814E9307C00D2300E500A300F5002301FB
:101BF000D501850605060D05E397C6F38280130718
:101C0000C00DD5B73E87930EC00D8147E9BFBA8797
:101C1000930EC00D0147C1BFBE8E01479307C00D93
:101C2000D9B7BA8E81471307C00D75BF37D7CCCC53
:101C30001307D7CC33B7E502379688881306968802
:101C4000B7C6A02F938636E8B7B7AAAA9387B7AAD4
:101C500041114AC2130FA0021583B3B5C502137612
:101C6000F70F134306081377F70F3336D60293DEC8
:101C70006500B336D3020D82B345C620B3C5C52077
:101C8000B3A5C5200D8F3327E720930510F0060775
:101C90001377F70FB3B7FE028D82B3C8D620B3C84F
:101CA000D820B3A8D820B3081341B3A818218608B8
:101CB000B3EF15419342F70F93FFFF0F93958F00FA
:101CC00013988200131E87008583B385F54133087E
:101CD0005840330EEE40B3A7F7209385050813084C
:101CE0000808130E0E08B387FE40637D6F3493F827
:101CF000F80F13978800B30817419388080813D783
:101D00008800469721839308F00F33F7E840931833
:101D10008700B388E8409388080813D7880046975F
:101D200021833327E7200A0713070708935F8E00F4
:101D3000135F8700B38ECF0122C626C44EC03A9FE0
:101D400093DE8E009308850437B4AAAA1304B4AABC
:101D500033878702B75455559384545563E6E4108E
:101D600013598800B30309011307F00F93D38300BD
:101D7000B37377401307F00FB379D741B3A2732041
:101D800033A73921B3C2722033473721B3E272201F
:101D90003367372186020607938202081307070874
:101DA0009353870093D982009699B382E3009143BD
:101DB00013D7890093D2820063EAC358B7B30020D7
:101DC00093838344B343762083A303008283B28248
:101DD0009303200D23007500A300E50023015500A7
:101DE0000D058507E392A8F63244A24482491249C0
:101DF00041018280930420FD37B4AAAAB7535555F8
:101E00002300E500A3000500230195000D05130440
:101E1000B4AA93835355E389A8FC850733878702C7
:101E200063E4E304330709019302F00F218333F7DE
:101E3000E240B322E720B3C2E220B3E2E22086020E
:101E40009382020813D78200169721832300E500AE
:101E5000A3000500230195000D05E387A8F8850779
:101E600033878702E3F0E3FC0D47638EE61A13D74E
:101E700085002E979302F00F218333F7E2409312EF
:101E80008700B382E2409382020813D7820016973C
:101E90009302B00A218363E862168542638A56186A
:101EA0003327E7200A071307070893528700BA92DF
:101EB00093D282003147814331BF930420FD37B470
:101EC000AAAAB753555523000500A30055002301C6
:101ED00095000D051304B4AA93835355E386A8F027
:101EE000850733878702E3E1E3F8B382CF01130765
:101EF000F00F93D28200B372574033A7522033477A
:101F000057203367572006071307070893528700A7
:101F1000BA9293D2820023000500A300550023014A
:101F200095000D05E39EA8FAC1B5930420FD37B4D2
:101F3000AAAAB753555523000500A3009500230115
:101F4000E5000D051304B4AA93835355E38EA8E866
:101F5000850733878702E3E9E3F03307090193023A
:101F6000F00F218333F7E240B322E720B3C2E2202F
:101F7000B3E2E22086029382020813D7820016970A
:101F8000218323000500A30095002301E5000D0532
:101F9000E390A8FC91BD930420FD37B4AAAAB753DF
:101FA000555523005500A3009500230105000D059C
:101FB0001304B4AA93835355E30815E385073387C5
:101FC0008702E3E3E3EAB382CF011307F00F93D272
:101FD0008200B372574033A75220334757203367EC
:101FE000572006071307070893528700BA9293D227
:101FF000820023005500A3009500230105000D0574
:10200000E31E15FBD5B39142639956023327E720AF
:102010000A071307070893538700BA9393D38300E3
:10202000B142014745BB13578F00B14281435DB3B5
:1020300093538F008142314771BB93528F00014708
:10204000B14349BB13D785002E979306F00F218328
:1020500033F7E64093168700998E9386060813D7C8
:102060008600369721833327E7200A0713070708DE
:10207000B7B8AAAA135F87009388B8AA3A9F338794
:102080001703935F8E0037535555B382CF01130367
:10209000535593D28200930E8504636EE30813595F
:1020A0008800B30509011307F00FA181B375B7408C
:1020B0001307F00FB3735740B3A6B52033A77320AF
:1020C000B3C6B62033477720B3E6B6203367772010
:1020D00086060607938606081307070893558700A8
:1020E00093D38600B693B386E500914513D783005A
:1020F000A18263EEC51EB7B500209385C545B345E3
:10210000B6208C4182859306200D2300D500A300C4
:10211000E500230105000D058507E38AAECCB7B8BD
:10212000AAAA9388B8AA33871703375355551303C0
:102130005355E376E3F613578F00B146F9B713030F
:1021400020FDB7B8AAAAB75555552300E500A3004E
:102150000500230165000D059388B8AA93855555A0
:10216000E307D5C9850733871703E3E6E5FCB30624
:1021700009011307F00FA182B376D74033A7D62009
:102180003347D7203367D72006071307070893562E
:102190008700369721832300E500A3000500230173
:1021A00065000D05E310D5FD99B1130320FDB7B807
:1021B000AAAAB755555523000500A300D500230151
:1021C00065000D059388B8AA93855555E301D5C3DD
:1021D000850733871703E3E0E5F6B386CF011307DE
:1021E000F00FA182B376D74033A7D6203347D7204C
:1021F0003367D72006071307070893568700BA9658
:10220000A18223000500A300D500230165000D0570
:10221000E310D5FDE9BE130320FDB7B8AAAAB75550
:10222000555523000500A30065002301E5000D05B9
:102230009388B8AA93855555E30BD5BB850733879B
:102240001703E3EAE5EEB30609011307F00FA182D5
:10225000B376D74033A7D6203347D7203367D7206C
:102260000607130707089356870036972183230034
:102270000500A30065002301E5000D05E310D5FD71
:10228000BDB6130320FDB7B8AAAAB755555523000C
:10229000D500A3006500230105000D059388B8AAA9
:1022A00093855555E385AEB4850733871703E3E47B
:1022B000E5E8B386CF011307F00FA182B376D740CC
:1022C00033A7D6203347D7203367D7200607130715
:1022D000070893568700BA96A1822300D500A30071
:1022E0006500230105000D05E390AEFC09B6B3853A
:1022F000CF011307F00FA181B375B74033A7B52005
:102300003347B7203367B72006071307070893053D
:1023100020FD935387002300B500A300050023018F
:10232000D5000D05BA93E304D5AD850733871703B0
:10233000E363E3E093D683002300B500A300050028
:102340002301D5000D05E312D5FF55B4B383CF01AA
:102350001307F00F93D38300B373774033A7732031
:10236000334777203367772006071307070893035F
:1023700020FD1359870023007500A30005002301E9
:1023800055000D053A99E381A8A685073387870292
:10239000E3ECE4AC9352890023007500A300050030
:1023A000230155000D05E392A8FE3DBC3787EB5194
:1023B0001307F75133B7E502B7C6A02F938636E867
:1023C000B7C70FFC9387D70F411122C69308A0020D
:1023D0001583937FF70F33B8DF021377F70F33B608
:1023E000F5029387AF0593F7F70F13583800B3B58D
:1023F000D702B3460821B3C60621B3A60621158F1E
:102400003327E720930610F00607B3EEE64093FE6D
:10241000FE0F8D81B3C6B520B3C6B620B3A6B620D5
:10242000958FB3A7F720860793F7F70F93C6F70F9B
:10243000139E86009392870013938E001D82330EA5
:10244000DE40B382F2403303D3411D8A130E0E08DF
:10245000938202081303030863F0F82D1377F70F34
:1024600093178700998F9387070813D787003E97A4
:1024700021839307F00F33F7E740B327E720960750
:10248000998F86079387070893D3820013DF87000D
:10249000B388530037B7002093D8880013078739D3
:1024A0003E9F9307F00F26C44AC2B3F81741930E1C
:1024B0008701834707006342F60E13548E00B3046E
:1024C000C4019307F00FA180B3F49740B3A6942002
:1024D000B3A7182196069607858EB38717418606FF
:1024E0008607938707089386060813D9870093D435
:1024F0008600A696B304F900114993D7860093D6B7
:102500008400636DB948B7B4002093840447B3C412
:10251000952084408284AE861304E00B230085005E
:10252000A300F5002301D50005070D05E393EEF8A0
:10253000A24412493244410182809304E0FB23000B
:10254000F500A3000500230195000507E382EEFED8
:10255000834707000D056342F604B307C4019306E1
:10256000F00FA183B3F7F640B3A6F72096069D8E31
:1025700086069386060893D78600B697A183230024
:10258000F500A3000500230195000507E382EEFA9C
:10259000834707000D05E352F6FC8D4713548F0067
:1025A000630CF814935683009A969307F00FA18258
:1025B000B3F6D740B3A7D6209607958F86079387A3
:1025C000070893D68700BE969307B00AA18263EDF1
:1025D000F71185476308F8129307E00B01443DBFEC
:1025E0001304E0FB23000500A300D50023018500B0
:1025F0000507E38FEEF2834707000D05E34FF6F87A
:10260000B38653009307F00FA182B3F6D740B3A768
:10261000D6209607958F86079387070893D687005D
:10262000BE96A18223000500A300D50023018500EA
:102630000507E392EEFCEDBD9304E0FB23000500EB
:10264000A30095002301F5000507E383EEEE834721
:1026500007000D05E343F6F4B307C4019306F00F3A
:10266000A183B3F7F640B3A6F72096069D8E8606A3
:102670009386060893D78600B697A18323000500AA
:10268000A30095002301F5000507E392EEFC4DB58C
:102690001304E0FB2300D500A300850023010500FF
:1026A0000507E387EEE8834707000D05E347F6EEED
:1026B000B38653009307F00FA182B3F6D740B3A7B8
:1026C000D6209607958F86079387070893D68700AD
:1026D000BE96A1822300D500A3008500230105003A
:1026E0000507E392EEFCA9B591476311F802368421
:1026F00081479306E00B1DB593578F009306E00BBF
:10270000014429BD81469307E00B09BD93568F0014
:1027100081471304E00B19B5935783009A97130769
:10272000F00FA183B377F74033A7F72016071D8F6B
:1027300006071307070893DF820013538700B38E41
:102740005F0093DE8E00B7B700203A931307F00FB7
:10275000B37ED7419387873933AFDE2193888701D2
:1027600003C70700634EE60413548E00B306C4018A
:102770001307F00FA182B376D74033A7D6201607F0
:1027800013185F00158F3308D84106070608130891
:102790000808130707089356870093538800369755
:1027A000B386030111482183A182636AB81837B840
:1027B00000201308484833C8052103280800028870
:1027C000135783009306E0FBA300E50023010500F7
:1027D0002300D50085070D05E394F8F8A1BB130885
:1027E000E0FB2300E500A3000500230105018507A8
:1027F000E38217D503C707000D05E343E6FC330763
:10280000C4019306F00F218333F7E640B326E72097
:102810009606998E86069386060813D78600369705
:1028200021832300E500A30005002301050185079E
:10283000E39217FD01B31308E0FB23000500A3009A
:10284000D500230105018507E38617CF03C70700DD
:102850000D05E347E6F6B3865F001307F00FA1828C
:10286000B376D74033A7D6201607158F0607130770
:10287000070893568700BA96A18223000500A3009B
:10288000D500230105018507E39217FD65B1130803
:10289000E0FB23000500A30005012301E5008507F7
:1028A000E38AF8C803C707000D05E34BE6F03307DA
:1028B000C4019306F00F218333F7E640B326E720E7
:1028C0009606998E86069386060813D78600369755
:1028D000218323000500A30005012301E5008507EE
:1028E000E392F8FC81B91308E0FB2300D500A300B4
:1028F0000501230105008507E38EF8C203C7070021
:102900000D05E34FE6EAB3865F001307F00FA182DF
:10291000B376D74033A7D6201607158F06071307BF
:10292000070893568700BA96A1822300D500A3001A
:102930000501230105008507E392F8FCE5BE338815
:102940005F001307F00F13588800337807413327CF
:10295000082116073307074106071307070813085E
:10296000E0FB9353870023000501A300050023012A
:10297000D5008507BA93E38F17BB03C707000D0582
:10298000E340E6E493D6830023000501A30005009D
:102990002301D5008507E39217FF69BE33845300F6
:1029A0009307F00F218033F48740B32784209607E4
:1029B000818F8607938707081304E0FB93D4870071
:1029C00023008500A30005002301D5000507BE9460
:1029D000E300D7B7834707000D05E340F6BC93D665
:1029E000840023008500A30005002301D50005070E
:1029F000E312D7FF35BE797183A7C18237C70020A4
:102A0000B3A7F7201307474733E7E72083280700DA
:102A1000032847000C475047144B46C042C22EC4FF
:102A200032C636C8544B37C700201307474A36CA48
:102A3000B3E7E72003A80700CC439047D447984B5F
:102A400042CC2ECE32D036D23AD4DC4B2C0837B81A
:102A5000002037838080B7C8A02F3ED6AE8E0A866E
:102A600013031308938838E813088849114E034765
:102A7000060083C60500333F1703B3C7D620B3E76C
:102A8000D720B3C7F720135F3F00B346EF21B3C68B
:102A9000E621B3A6E621B3B76702158F3327E720F7
:102AA00006071377F70F9346F70F93928600B382CA
:102AB000D240931F870093820208B38FEF40938F19
:102AC0000F0893D6820013D78F0096969D837E972A
:102AD000A182930FF00F93872703B3F6DF4093F79C
:102AE000F70F930FF00F218333F7EF40B386F60211
:102AF0003307F7029386060893DF8600FE96A182CD
:102B000013070708935F8700BA9F6365EE09334791
:102B10000F2118430287BE86014F93D78F002300F1
:102B2000F500A300D5002301E501050685050D0587
:102B3000E31FD6F3456182803E8FB687814623002E
:102B4000F500A300D5002301E501050685050D0567
:102B5000E31FD6F1C5B73E8F93D68F008147230080
:102B6000F500A300D5002301E501050685050D0547
:102B7000E31FD6EFC1B7368FBE8681472300F5002D
:102B8000A300D5002301E501050685050D05E31029
:102B9000D6EF4DB713DF8F0081462300F500A30069
:102BA000D5002301E501050685050D05E311D6EDE8
:102BB00051B7B7C7166C9387D716B3B7F50237B7B7
:102BC000AAAA1307B7AAB7D6CCCC9386D6CC93784B
:102BD00035003386F5400582B297958333B7E70217
:102BE000B3B5D50211833327E7200E073387E740BB
:102BF000918113F8F50F639B081A23200500232207
:102C00000500232405002326050023280500232A88
:102C10000500232C0500232E050023200502232276
:102C20000502232405022326050223280502232A60
:102C30000502232C0502232E05022320050423224E
:102C40000504B7C8A02F938838E8B338180393F762
:102C5000F50F130610F09305A00293D83800B3C601
:102C60001821B3C61621B3A61621958FB3A7F72056
:102C70008607B366F64093F6F60F13968600158E18
:102C80001306060893568600B296A1821306F00F2B
:102C9000B376D64013968600B306D64093860608D0
:102CA00013D38600369393F7F70F1353830063FC17
:102CB0000511939687009D8E9386060893D786000C
:102CC000B697A1839306F00FB3F7F640939687006B
:102CD000B387F6409387070813DE87003E9E85473B
:102CE000135E8E006381F8304111B7BEAAAA22C6D6
:102CF000938EBEAA13088701930F07011306F00FE6
:102D00000D4F9142894325A8639478083304C30288
:102D1000BA8681451304040813578400229721833F
:102D2000B3A7F720AA9701162380B700A380D70086
:102D30002381E7007D181376F60F63860F07B337FC
:102D4000D80313178600118F1307070893568700BF
:102D5000369721839183B3A7F7208E07B307F840F6
:102D6000638EE801E39258FA3304C30281461304E8
:102D7000040893558400A295A1815DB73304CE0267
:102D800081451304040893568400A296A18249BF8A
:102D90003304CE02BA858146130704081354870012
:102DA00022972183B5BF324441018280AA879306CE
:102DB000850423800700A3800700238107008D0777
:102DC000E399F6FEBDBDB7B7AAAA9387B7AA930E3B
:102DD000870133BFFE0293128300B3826240938265
:102DE0000208130E7701931F3300B38F6F40960FC5
:102DF000B38F6F40938F0F08135F4F00332FEF2176
:102E00000E0FB38EEE41B3AEDE21AA9E7D5F23800E
:102E1000EE0113DF8200FA92333FFE0293D282006A
:102E2000A3805E0023810E0093086701B32E632008
:102E300093926E00B3826240938202081308570196
:102E4000135F4F00332FEF210E0F330EEE41332E61
:102E5000CE212A9E130FF0FD2300EE0113DF8F0019
:102E6000FA9F33BFF80293DF8F00A300FE01230116
:102E70000E0093054701B34F6320960FB38F6F4049
:102E8000938F0F0813063701135E4F00332ECE21A8
:102E90000E0EB388C841B3A81821AA98130EF0FBF0
:102EA0002380C80113DE8200333FF802169E135EB2
:102EB0008E00A380C8012381080093D28F00FE9268
:102EC0009306270193D282004507B3B8F502135F3A
:102ED0004F00332FEF210E0F3308E841332808212C
:102EE0002A98130FF0F92300E8012301080093D872
:102EF0004800B3A818218E08B3851541B338F602EF
:102F0000A300580093137300B383634093830308B3
:102F1000960EB38E6E40131E630093DF8300938E74
:102F20000E0833B8F60293D84800B3A81821330E20
:102F30006E409E9F8E0893135300130E0E08B383AA
:102F4000634033061641B337F7021358480033285D
:102F5000082113D38E000E08B3A5B520AA95130F30
:102F6000F0079A9E938803089183B3A7F720135321
:102F70008E00B386064193DF8F003326C6208E076E
:102F80002380E50123810500A380F5012A96B3A6DD
:102F9000D620B307F7403308C301130FF00593DEC3
:102FA0008E0093D58800230106002300E601A300CC
:102FB000D6013307D500B3A7F7201303F003135648
:102FC0008800B38615012301070023006700A300D2
:102FD000C700AA977D47A182238107002380E700CD
:102FE000A380D7008280B7B7AAAA9387B7AA930E07
:102FF000870133BFFE021303770193123E00931340
:103000008E00B382C241B383C34193830308960207
:103010009308670113085701135F4F00332FEF2107
:10302000931F3F00B38EFE41B33FF302338FC24183
:1030300093D283009E92B3AEDE21AA9E93D28200E9
:1030400023805E00FD52A3805E0023810E0093DE8C
:103050004F00B3AEDE21130F0F088E0E3303D341A2
:10306000935E8F00FA9E332363202A9393DE8E00B3
:103070002300D30133BFF802930EF0FDA300D30168
:103080009305470113063701B322CE2193936200C3
:10309000B383C3419383030823010300B33EF802C3
:1030A000135F4F00332FEF210E0FB388E84113D386
:1030B00083009602B382C2419A93B3A8182193DE8B
:1030C0004E00B3AEDE21139F3E00B3BEF502AA98B8
:1030D0001383020893D28300238058009302F0FBED
:1030E000A38058002381080093062701450793DE3B
:1030F0004E00B3AEDE218E0EB385D541B33EF6024F
:10310000B34FCE21960FB38FCF41938F0F08330863
:10311000E84193D28F00131F7E0093136E00B38398
:10312000C34193D84E00B3A81821939E3800B3B87A
:10313000F602330FCF41FE92332808212A98130F4D
:103140000F0893D282003306D641938E030893036F
:10315000F0F9B337F7022300580023010800A30059
:103160007800935F8F0013D848007E9F3328082192
:10317000931F5E00B38FCF419183135E83000E08CF
:10318000B3A5B520B3A7F720AA95B3086E00B38600
:10319000064113830F08135F8F009302F007332655
:1031A000C6208E0713D88E00238105002380E501F9
:1031B000A38055002A96B3A6D620B307F740769889
:1031C00093D88800130EF005935583002301060061
:1031D00023001601A300C6013307D500135688004B
:1031E000B3A7F7201308F003B38665002301070097
:1031F0002300C700A3000701AA97A1827D4723816E
:1032000007002380D700A380E700828037274992F8
:1032100037BFAAAAB79EE338B7D7CCCC797193DF72
:10322000150013073749130FBFAA938E9EE39387A8
:10323000D7CC33BFE50352CE13DA4500B7B6002032
:1032400022D69386063BB7B8002037B60020375405
:103250005555B7B20020B3BED503B7C3A02F26D4AF
:103260004AD24ED056CC5ACA5EC862C693898601ED
:10327000B3BFEF02938888391306863C1304645564
:10328000135F3F00938333E89382C24A0548130ECD
:1032900000040943B3B5F50293DF2F005949914467
:1032A00093DE1E00918103C7060003CB080093172D
:1032B0003700998FB3C7E72193F7F70F93DA6700C9
:1032C00093F7F70363840A2163866A0063820A2006
:1032D000B307FE40B29783CA0700B30A5041B367F1
:1032E0006B218A07B387474193F7F70F93DB67009A
:1032F00093F7F70363860B1D63866B0063840B1CD7
:10330000B307FE40B29783C70700B307F0405A9750
:1033100033072703D69776971377F70F935A6700EB
:103320001377F70363880A1963866A0063860A18AD
:103330003307EE403297034707003307E040BA9760
:103340003397870213DBF741FE9793F7F70F93DA72
:10335000670093F7F703330767412E971377F70F4B
:1033600063840A1563866A0063820A14B307FE4009
:10337000B29703CB0700330B6041B33A7702935700
:10338000FB418D8BDA9789879387C7F893F7F70FFF
:1033900093DA3A0033CB5A21334B5B21332B5B2139
:1033A000330767413327E72006071377F70F134BDF
:1033B000F70F131C8B00330C6C41931B8700130C0D
:1033C0000C08B38BEB40938B0B08135B8C0013D76B
:1033D0008B00629B5E97135B8B00930BF00F33FBAC
:1033E0006B412183930BF00F33F7EB40330BFB0260
:1033F0003307F702130B0B08935B8B005E9B135B89
:103400008B0013070708935B8700BA9B63E6540D94
:1034100033C75A20184302873E8B814A93D78B00CB
:103420002300F500A30065012301550185068508E9
:103430000D05E39A36E73254A25412598259724A62
:10344000E24A524BC24B324C45618280BE8ADA87D7
:10345000014B2300F500A3006501230155018506FA
:1034600085080D05E39136E5F9B7BE8A13DB8B00BD
:1034700081472300F500A30065012301550185065E
:1034800085080D05E39136E37DB7DA8A3E8B8147E7
:103490002300F500A3006501230155018506850879
:1034A0000D05E39236E141BFB307FE40B29703CB6F
:1034B0000700E1B53307EE4032970347070041B5F7
:1034C000B307FE40B29783C7070091B5B307FE402C
:1034D000B29783CA070021B593DA8B00014B230012
:1034E000F500A300650123015501850685080D053A
:1034F000E39B36DB89B7B7B7AAAA9387B7AAB3B756
:10350000F5028546918393F7F70F13D7670093F77A
:10351000F703630BD7128946630ED710B7B60020A6
:103520009386863C75EBB69783C7070037D7CCCC1C
:103530001307D7CCB3B5E50213D6F7411376F603DC
:103540003E9637B700201986130787393788808061
:103550001206130387019181130818088548930EFA
:103560000004094E59A0B38FFE40B69FB697630F73
:103570000F0A03CF0F00330FE041130FFF0F135F4C
:103580001F40334FEF2193174F00B387E741860762
:10359000B3B7070305070D059D839387670493F76A
:1035A000F70F33AFF720336FEF21B3CFF7200E0FB4
:1035B000B3AFFF20330FFF40B3CFFF21130F0F082E
:1035C000938F0F0893538F0093D28F00FA93338F0A
:1035D000F201135F8F0093DF8300230FF5FEA30F2B
:1035E000F5FFA30EE5FF6306670483470700B3C733
:1035F000F7208E07918FAE9793F7F70F13DF6700D1
:1036000093F7F70363011F03E31FCFF5B69703CFCB
:103610000700330FE04195B7B387F64083C707042F
:10362000B307F04021B7B387FE40B69703CF07003A
:10363000A9B78280B7B600209386863CB69783C729
:103640000700B307F040DDB5B7B600209386863C8F
:10365000B387F64083C70704D1BDB7D7CCCC9387D7
:10366000D7CCB3B7F5028546958393F7F70F13D7F9
:10367000670093F7F7036306D71489466309D712E7
:10368000B7B600209386863C65EFB69703C6070061
:10369000B7D7CCCC9387D7CC33B7F5029357F64145
:1036A000BD8BB297918793870705854593F7F70FF1
:1036B00011831377F70F135667001377F703630827
:1036C000B60C8945630FB60C79E6BA9603C70600B7
:1036D00037C6A02F130636E833B6C7021307F70F15
:1036E000058793186700BA983787808013071708F3
:1036F00086080943B3B8E8020D823347C620334732
:10370000C7203327C720998FB3A7F720860793F7E1
:10371000F70F93D8780093857803630D660A1397A3
:103720008700B307F7409387070813D687003E96B4
:10373000B7B600202182938686399307F00F9388CD
:10374000380733F6C7401388860103C7060093F78E
:10375000F50F85066314670093F7F80F3387C702E8
:10376000A300F500230105000D0513070708935773
:103770008700BA97A183A30EF5FEE318D8FC8280D8
:10378000B387F64003C607043306C04011B7998ECD
:1037900003C7060435BF998E03C706043307E0400C
:1037A00005BFBA9603C706003307E04015B7B7B6A2
:1037B00000209386863CB69703C607003306C040B8
:1037C000C1BDB7B600209386863CB387F64003C6DA
:1037D00007047DBD93C7F70F13978700B307F74022
:1037E0009387070813D887003E98B7B60020135870
:1037F0008800938686399307F00F9388380733F84B
:1038000007411383860103C7060093F7F50F85066A
:103810006314C70093F7F80F33870703A300F5007D
:10382000230005000D051307070893578700BA9773
:10383000A183A30FF5FEE318D3FC8280B7B7AAAA31
:103840009387B7AAB3B7F502379788881307978885
:103850000546B3B6E5028D8393F7F70F13D76700DC
:1038600093F7F703958293F5F60F6300C7160946A1
:103870006303C7147DEF37B700201307873CBA975F
:1038800083C7070037C7A02F130737E833B7E50210
:103890009387F70F8587B3C7F720B3C7F72037881B
:1038A0008080130818088E0793F6F60F9308A0027D
:1038B0000D833346E7203346E620B3B707033326AC
:1038C000E620918EB3A6D6208606130810F0336644
:1038D000D8401376F60F131886003308C840130833
:1038E00008081356880042969D831308F00F9387AB
:1038F000870221823376C84093F7F70F3306F6022A
:1039000093F6F60F13060608135886004296218296
:103910001378F60F63F4B80C93958600B386D54000
:103920009386060813D68600369621829306F00FFA
:1039300033F6C6403306F60285451306060893564D
:103940008600B296A18293F6F60F6306B70E09467B
:103950006302C712130685048D456317B70223005F
:103960000500A300D5002301F5000D05E317A6FE11
:10397000828037B700201307873CB307F74083C71F
:103980000704B307F040FDBD9145630CB700230069
:10399000F500A30005002301D5000D05E317C5FEC2
:1039A000828023000501A30005002301F5000D0519
:1039B000E319C5FE828037B700201307873CBA970A
:1039C00083C70700B307F04075BD37B70020130762
:1039D000873CB307F74083C707046DB513773500FD
:1039E0007DE793960701370600017D1613178800BF
:1039F000B366D8005D8FF18E93188801B3E6160187
:103A0000718F9395870113160801A2074D8FD18FEF
:103A100054C114C954CD14D554D934C118C158C592
:103A200018CD58D118D958DD1CC55CC91CD15CD53E
:103A30001CDD7CC182801377350055E713960601A3
:103A4000B7050001FD15139787005D8E558F6D8EAC
:103A500013988701336606016D8FC207939586011F
:103A6000A2064D8FD58F50C110C950CD10D550D959
:103A700030C16DB71377350059E3939607013706C8
:103A80000001131788007D165D8FB366D800F18E94
:103A9000718F939587019318880113160801A20767
:103AA000B3E616014D8FD18F14C554C914D154D526
:103AB00014DD74C158C118C958CD18D558D938C1AA
:103AC0001CC15CC51CCD5CD11CD95CDD8280130798
:103AD00085042300F500A3000501230105000D0561
:103AE000E319E5FE8280130785042300D500A300B7
:103AF000F500230105000D05E319E5FE828013079B
:103B0000850423000500A300F500230105010D0530
:103B1000E319A7FE82805971B7C70020E2C42E8C3A
:103B200083A507CCCECEAA89328586D6A2D4A6D2CA
:103B3000CAD0D2CCD6CA328ADAC8DEC66EDEB7C4E4
:103B40000020E6C2EAC0EF10607E83A544CC2AD4F0
:103B50005285EF10A07D83A744CC2AD637C8002019
:103B600037C50020B7C50020B7C6002037C70020E2
:103B70000324C8CC032505CD83A545CD83A6C6CD9A
:103B8000032707CEB7C8002037C6002083AB88CCF8
:103B9000032B86CD3EC837B90020B7B7002022CA14
:103BA0002ACC2ECE36D03AD2938D073B13098939D1
:103BB000B7CA002003C50D00850DEF60103FDE85FC
:103BC000EF10C076AA8403450900EF60103EDE8541
:103BD000EF10C075C2452A842685EF102075D28566
:103BE000EF10C05FEF30F00AD245AA8C2285EF10AB
:103BF000E073A255EF10405EEF30B009A2852A8D28
:103C00002685EF10A05DE245EF104072B255EF102F
:103C1000E05CEF301008A6852AC62685EF100071FB
:103C2000A285AA842285EF106070AA852685EF10F0
:103C3000E05AEF30D000F245EF10406F2A84DA8569
:103C40005285EF10A06EAA852285EF10E058EF3064
:103C500050042A84EA856685EF104058B245EF107B
:103C6000E057A285EF10805782552A84EF10005745
:103C70009255EF10A06BEF6090282380A900DA85A1
:103C80002285EF10A06A83A54ACE2A845285EF10C0
:103C9000E069AA852285EF106054EF30807F83A50C
:103CA0004ACEEF10A06883A54ACEEF102053B7C7C5
:103CB000002083A587CEEF106067EF605024014796
:103CC000634605001307F00F3347A70AB7B7002074
:103CD0002300EC009387873C05098509050CE39BCD
:103CE000B7EDB650265496540659F649664AD64A58
:103CF000464BB64B264C964C064DF25D6561828074
:103D0000411106C622C426C2EF00F077EF60F03BF7
:103D1000B7C7002083A5C7CEB7C4002003A444FFC3
:103D2000EF10C060B7C5002033248420B7C700203F
:103D30000E04938747479385454A2A86A295338583
:103D40008700D13B83A744FF23A6F18203A781828A
:103D5000B240224493C7170023AAF4FE930717002A
:103D600023A4F182924441018280B78703409107E6
:103D7000B347F52098438566BE961347070413772B
:103D8000070C3786024098C23365C5200D67BA9785
:103D90004CC11307001098C38280397137B30020DB
:103DA00022CC2A84130503F306CE2ED232D436D683
:103DB0003AD83EDA42DC46DEEF30C01001CC4C107F
:103DC00022852EC6EF20105D37B500201305C5E90A
:103DD000EF30400F0545EF20D06073750430B7C752
:103DE00000209387B730139737003317E028F19BF3
:103DF000AFA6E744F98EEDFE0F00300382800F007E
:103E00003003B7C7002093870730A38507002189B7
:103E1000732005308280F3760430B7C70020938783
:103E2000B730139737003317E028F19B2FA8E744EA
:103E30003378E800E31C08FE0F00300393D7350009
:103E40003E950347050093F77500B317F0283378C4
:103E5000F700631108025D8F2300E5000F003003B7
:103E6000B7C7002093870730A3850700A18A73A0F6
:103E7000063082804111328506C60537737E0430D4
:103E8000B7C700209387B73013983700331800293D
:103E9000F19BAFA80745B3F80801E39C08FE0F00AB
:103EA000300363F6C60015A8050663E8C6029357FB
:103EB0003600AA9783C807001378760033180029C4
:103EC00033F30801E31203FEB3E808019356F60149
:103ED000328523801701F58D11A07D550F00300329
:103EE000B7C7002093870730A3850700137E8E0095
:103EF00073200E3091E1828041113A8506C6713DF2
:103F000037C70020034587FFDD469307150093F769
:103F1000F70F63F3F600C147230CF7FE8280B7C6A4
:103F20000020938606308147130600020F003003FD
:103F30003387F600230007008507E399C7FE8280D8
:103F400081463D481D459305400393F736008A0797
:103F50003317F80013D626004207518F733037BE4F
:103F6000B317F500C207D18F73A037BE8506E39E55
:103F7000B6FC736004308280935755008607331572
:103F8000A028C176E98E138717004205558F5D8DF5
:103F900091C9733025BE733027BE732005BE7320D0
:103FA00007BE8280733005BE733007BE8280011168
:103FB00006CE73770430B7C7002093879730939667
:103FC0003700B316D028F19B2FA6D744758E6DFE0F
:103FD0000F003003F327503013054503F19BB3471F
:103FE000F52094436380D502B70700209387471AD2
:103FF000638AF6002EC62AC43AC2EF102002B245E8
:1040000022451247F3275030F19B3345F5200CC170
:104010000F0030030F003003B7C70020938707302D
:10402000A3840700218B73200730F2400561828052
:10403000797106D6737E0430B7C700209387973016
:10404000139737003317E028F19BAFA6E744F98EAA
:10405000EDFE0F003003F3275030F19B930F450323
:10406000B3C7FF2003A8070037070020930E471AA5
:104070006300D80B630EB80837CF0020130F0FE58D
:104080003307E8419307F00263E5E70822D493572A
:104090004500F3A707BE9372F5003317A028935885
:1040A0005500C183931307018608B3125028B3F259
:1040B000F200B3E3130173B003BEC1777D8F8508AF
:1040C000B3E8E80073B008BE0F003003F32750BE1A
:1040D0001397070101446350071CC28701439843AB
:1040E000D44313768700137707801317B74813D587
:1040F000464119E2B306A7006385D5040387A700EC
:104100003E83B327E720634C0716B3C7E721C1BF3F
:104110007688F3275030F19BB3C7FF2023A0070117
:104120000F0030030F003003B7C70020938707301C
:10413000A384070093778E0073A00730B2504561C7
:1041400082800386A700634E06183327C6203347B4
:10415000E7211443584393F5860099E593F60680CA
:104160009396B648518736976383070393161700D3
:104170008565ED8EBA9693F606809396B6485207FB
:1041800093E6760B1367770E94C31317F728B326BD
:10419000C62033C5E6210343B50093952600D8C356
:1041A000A38567008306A5003167130727E42385ED
:1041B000D70063CA060A83568500A105FA9513D570
:1041C000160013973600137305041377070233673D
:1041D0006700138387003307674013931600137338
:1041E0000308137505301A97139326002A97137343
:1041F000034013D526009D821A97C18A1373E500E8
:10420000B3E6660036971313B0282E973375650012
:10421000098F931617008565ED8E9355370013159A
:104220007700918933756500CD8E93151700C98E7F
:1042300093F5056013552700CD8E13750510931562
:104240001700C98E93F5050813551700CD8E137509
:1042500005049315270033E7A60093F68503558FD1
:10426000E9768506558F03C50183B326C6202394BE
:10427000E700B3C7E6212388C1822385A700638CAA
:10428000020473B023BE73B028BE73A003BE73A034
:1042900008BE2254BDBD918393F7F71F13844703D3
:1042A000E30DF5E22ECE7ECC72CA46C81EC616C4F9
:1042B00042C2EF00B056B7070020938E471AB7C727
:1042C00000201248A242B243C248524EE24FF24589
:1042D000138F07E519B573B003BE73B008BE22543F
:1042E0000DBD0DEC6302030A7177130727E4FD5639
:1042F0002314E3002305D3003387E741B7B6AAAA06
:104300009386B6AA09873307D70203C6018323859C
:10431000C7002388E182E38002FCA5B7B7C600206E
:10432000138787009386C6E8998E13971600056653
:10433000718F13D63600118A518F9315B0281396BA
:1043400076006D8E93951600518F93F5056013D608
:1043500026004D8F1376061093951600518F93F516
:10436000050813D616004D8F137606048A06518F62
:1043700093F68603558F136717001317D7282394D6
:10438000E700E38A02F4F5BD7688BDB7F32750BE97
:1043900013970701814563490700918393F7F71F3E
:1043A000938747039395270073760430B7C700209F
:1043B00093879730139737003317E028F19BAFA608
:1043C000E744F98EEDFE0F00300337C700201307D6
:1043D00007E5B307E540B7B6AAAA9386B6AA8987C8
:1043E000B387D70293974760F3265030F19AAE9681
:1043F00094426384A6048306A700638AF6048306B6
:1044000067016384F606830627026382F606830645
:10441000E7026380F60683C601832388F1822305C1
:10442000D5000F003003B7C7002093870730A3845F
:104430000700218A73200630828073275030B70628
:104440000020719B2E979386461A14C3E9B78146C4
:10445000B3A6D620B3C6E62071777D58130727E4AC
:10446000238506012394E6007DB78546D5B78946A6
:10447000C5B78D46F1BFB7C7002093870730AE9709
:104480001CC18280011122CC26CA37C40020B7C4C7
:10449000002006CE13040400938404016377940281
:1044A0004AC84EC61309F00FFD591C4085C7EFF0EE
:1044B0003FA5AA852285C137231224010F003003AE
:1044C0002104E36494FE4249B249F2406244D2447A
:1044D00005618280EFF0DFA2AA852285693F230271
:1044E00034010F0030032104E36194FCE9BF83A78A
:1044F000418373770430139637003316C028F19B3D
:10450000AFA5C744F18DEDFD0F00300383A74183B4
:104510000F003003238007009377870073A00730D4
:1045200033201000014581458280397106DE22DC8E
:1045300026DA4AD84ED652D456D25AD05ECE62CC63
:1045400066CA6AC8F32750BE13970701634707324C
:1045500013D947009377C91F13793900B31920295C
:10456000B70B0B406397073437C70020B3C7272129
:104570001307C753B3C7E72083AA07008D67938744
:104580004704DE97374A002023A03701130AAA52B6
:104590007D54FD54039B8A0023AE3B0363570B08F5
:1045A00083D74A009397576063DC071483C76A0078
:1045B0006395071E039B8A0063460B0403A74A0109
:1045C000332B6B21FD57336BEB20032C8B00032B1C
:1045D000CB006301FC2AB346792103A78B029C4AD6
:1045E0003306EC40998F636FF60283A70B02B3D7B3
:1045F00027498DCB5E85412563C66501E31CBBF869
:10460000E37A85F933201000F2506254D2544259B3
:10461000B259225A925A025BF24B624CD24C424D32
:104620002161828023A88601F1B783A74A01332C38
:104630006B215E85336CFC20832CCC00032D8C0019
:104640001D2DE3CF95F56383BC1C63C50C1C83272C
:104650000C0183254C016385472503978A00035588
:104660002C004207598D82972E87AA87B3E6E70070
:104670006382061A63590720B306FD40333DDD000F
:10468000B387EC40B387A74103170C002324DC0059
:104690002326FC00E34607F003A84A013325E72060
:1046A00013161700336505214C4583288500E3C99F
:1046B000B7EE6394F500E3E516EF2394EA00138563
:1046C0008A0031A0832886004C46131617003A96BC
:1046D00063CEB7006383F51E33650621031705001B
:1046E0003326E72033660621E35E07FC2310EC0047
:1046F0002310650183D74A0093975760E3C807EA00
:1047000083A70A017377043093963700B316D02835
:10471000F19B2FA6D744758E6DFE0F00300383D812
:104720004A00FD572392FA009398586083A70A0124
:104730000F003003238007009377870073A00730B2
:10474000E3C608E603A54A0103978A0033A81821A7
:104750003368A82093858A006345070203238800F5
:104760000326C80001A8638BC60E03970700BE8509
:1047700063490700B327E720B3E7A720D447E354F2
:10478000D6FE23901501831808002310E800E3DD0E
:1047900008FA83C76A00E38F07E023830A00039BBC
:1047A0008A00FD555A87E30FBBE403A54A01B327EE
:1047B000E7203A86B3E7A72083D6270003970700B0
:1047C00013888A009396566063C206023E88E3050A
:1047D000B7DEB327E720B3E7A72083D627003A86C2
:1047E0000397070093965660E3D206FE80C7C4C7BE
:1047F000E30FCBFC2310E80083D68A00328B239092
:10480000D7002394CA00E316B7FC7DB3E36AA5D9A9
:10481000E3DF0CE203570C0083A70A012394EA00AC
:104820007377043093963700B316D028F19B2FA6E8
:10483000D744758E6DFE0F00300383D62A0083A700
:104840000A012310DC0023916A010F00300323804A
:1048500007009377870073A0073099B39447E376F6
:10486000D3F023901501831808002310E800E3DD3E
:1048700008EC05B7E3118BD7B5BB8549CE87014955
:10488000B78B0B40D5B15E853AC63EC4ED26A24734
:104890003247B306F500B3B7A600BA95AE97EDB3AD
:1048A0009C492E852EC4829735D5A2459C41D8417E
:1048B00075BB8547B78B0B4045B9E3FF16E13DB5A6
:1048C000B7C70020938787E9984B09C713854183B1
:1048D000A94555B641118D4537050B4006C622C482
:1048E000AD2E37C40020930784E937080B4023A678
:1048F0000701EFF0EFE0930784E9AA850D452380D7
:10490000A700370700D003230700B7C60020D84B05
:104910009386063037061100AE967D16BD4894CBBF
:10492000A380670090C723911701FD550943914863
:10493000154699462392B70023146704231C1707D2
:104940002318C7082314D70A9D42A146A54F294F13
:10495000AD4E314E3543B9480546231CD70C2310C4
:10496000A7062310570C2318F70F2314E711231061
:10497000D713231CC71323186714231417172310E6
:10498000B7002318C702231C070037080B40B745A0
:1049900000202320D80237C700209385A552232466
:1049A000F754EFF0CFE085450D45EFF0EFDC224402
:1049B000B240B7270B40A146B4C313854183A94534
:1049C00041016FF05FABB283AA8710492E83F37564
:1049D0000430131536003315A028719A2F28A644E9
:1049E0003378A800E31C08FE0F00300383982700EB
:1049F00013F685008C4B63CE0808C84B33A81821EA
:104A00003368A820035508002391A7000F00300346
:104A10002380050073200630035628008545139532
:104A200008012E96460645823376B60A232AE80008
:104A30002328D80023246800232678002311C800E7
:104A4000518D984BF3760430131637003316C02877
:104A5000719BAF25C744F18DEDFD0F00300303D6E8
:104A60004700984B2310C800239217010F00300312
:104A70002300070013F786007320073003C70700E1
:104A8000DC478966938646043317E028B69798C3B7
:104A900082800F00300323800500732006307D558F
:104AA00082800357A50093D7054163D8E704544992
:104AB000B3A7F7201849B3E7D720F37604301316CD
:104AC00037003316C028719B2F28C7443378C8009D
:104AD000E31C08FE0F00300303D62700B3C505080A
:104AE00013F78600B3460608630BB6001C490F0097
:104AF00030032380070073200730014582806176F0
:104B0000D18E2391D70085472303F50014490F0068
:104B10003003238006007320073083460500584584
:104B2000096613064604B316D02832973E8514C38F
:104B30008280F32750BE13970701635A0706B7C751
:104B400000200111938787E9D84722CC26CA06CED8
:104B500083C70700AA843A852E843EC63AC4212A18
:104B60002247B247B305B440B3C7E7209C4B338715
:104B7000A440B3B6E400958D898F63CD0504A9C91F
:104B800033200000B7060B40D8528147636B870083
:104B90009C56018F3337E000B3B7970093B71700E7
:104BA000D98FF2406244D2443E8505618280B706C7
:104BB0000B40D8528147636BB7009C560D8F33373B
:104BC000E000B3B7A70093B71700D98F3E85828066
:104BD000E378F7FA4D283385A44033B5A400B30534
:104BE000B440898D63C70504B7460020B7C70020CD
:104BF0009386E64E0147A6852286138587E9E13331
:104C00006359A00237070B405C5363EB87021857C8
:104C10006394870063669702B7C70020AA8513854F
:104C200087E94135B7060B40D8528147E36B87F6D9
:104C300085B737070B405C5363F78700814795B70B
:104C400033200000D1BF1857818FB337F0003337BE
:104C5000970013371700D98FA9B7B787F4BFAA9762
:104C600093B717001385818337B600203E9513064E
:104C700006F46FF04F9A4C51AA8788572E87CC5371
:104C8000E31DB7FE8280B7070B40CC5388572E87B1
:104C9000CC53E39DE5FE828037070B405C5303282D
:104CA0008702BE865C53E39CD7FE33060501BE95A2
:104CB0003335A6002E95636CF5026388A702B7070B
:104CC0000B40DC5363F7A70037070B405C53E3EF5F
:104CD000A7FE639BA70037070B4021A054536395A1
:104CE000F6001457E3ECC6FE8280E37A06FDB707B0
:104CF0000B40DC537D552A86E398A7FCE9BF0111E0
:104D000022CC2A84194526CA06CEAE84F52A51CD76
:104D1000B787074037070004630DF40EB72702403A
:104D200098C3B7060240B737024098C3A1069C4219
:104D3000B377F740EDFFB787F8BFA2971387C1831A
:104D400093B71700B3A7E720194513070010239066
:104D5000E7005D2A93173500B3D79702850713D76D
:104D6000770029EB93040004854654D018D41858D2
:104D700093771700ADE385679387C702A2975454D2
:104D800023A0070018D819453EC4BD2A0A0533558B
:104D900095025854A247130610301347070713779C
:104DA000E70798C38D4610D834C4F2406244D24419
:104DB0000561828041667916C166637FE604FD164F
:104DC000014754D018D41858B7044000938404FC09
:104DD00093771700CDD38D6793870703A297930628
:104DE000103094C35C50145419459A07B6973AC6CC
:104DF0003EC4192AB7862B8F938656B73335D50212
:104E0000A2478145AA072D8133D5A70271353247C4
:104E10009DB73707000819B785839316670093F786
:104E2000F703B384F600BA863E8781B7B70701401F
:104E30003327A5203347F72003284700C167637352
:104E4000F8005CC39387F5FF9308C5FF81E793B72C
:104E50002800B5E737C800201308C83BB347052131
:104E600003A307008D67BA97131EB02823A0C701BC
:104E70000A056319030203230700160685673346F4
:104E800066001376060EBA9790C305466370160740
:104E90008967BA971316B02890C34295C16714C1A9
:104EA0005CC3828083274801B3D767028507B3A715
:104EB000F72001009387E7FFE3DE07FE6DBF8D67F4
:104EC000BA970D4823A007011C47858BF5DF0328FF
:104ED000070016068567334606011376060EBA9755
:104EE00037C800200A0590C31308C83B8328070071
:104EF0003316B028B3C8150193F8380023A0170162
:104F00001C47F18FF5DF69B7B7C700209387C73B10
:104F10003345F52008418280B727B700938707B053
:104F2000B3D7B70283280500C206320733E8E6008C
:104F30003356F60263C40804B7870540116763005F
:104F4000F506B727024098C3B7060240B7370240BC
:104F500098C3A1069C42B377F740EDFF0D670CC1E3
:104F6000110710C52A97930710021CC31C41E3DFE9
:104F700007FE23260501A1471CC382801C4193F72D
:104F8000F703E39BB7FA1C45D207D183E396C7FA30
:104F90005C4537770700F98FE39007FB8280216734
:104FA0004DB7B78710403325A5203345F5204CC1B8
:104FB00085471CC18280A1679387A7DF83D707003D
:104FC00085458287B7170E409387878298437DDF98
:104FD0000F0030038280B7170E4037170E409387BB
:104FE000C7801307C7820F00300323A00700910773
:104FF000E39BE7FE82808567938707AA3787044093
:105000001CC39307A0115CC7B7B6FA00B7A704404A
:1050100094C35C43E3DF07FE8280828037B50020C3
:105020004111130545F606C6EFE03FD7411122C4F2
:1050300026C237C40020B7C4002006C613040401EA
:1050400093848404637794001C4011048297E36D79
:1050500094FEB2402244924441018280B747EFEF70
:105060009387F7B7B72602403707F4039CC2591756
:10507000B7370240B706024098C3A1069C42B377F7
:10508000F740EDFF8280B7071150F847A16763032F
:10509000F7008280B727115037070400F8C78280D5
:1050A000370700207D17B7370240B706024098C384
:1050B000A1069C42B377F740EDFF82801565411150
:1050C0001305352506C6C53DB240AA8711454101E5
:1050D0008287156541111305352506C6E93DB240A5
:1050E000AA870545410182876FE07FE3411122C411
:1050F00006C626C24AC03704014023220408E53D03
:10510000B73701400547D8DF7C40E39FE7FE0D47F6
:10511000B737014098DB0544370701401C5FE39F28
:1051200087FE37366859A285130606F0094795466B
:1051300037050540D533154737968647BA86A28589
:10514000130606C037850540C13BB726B7009386D6
:1051500006B0014689451145D139B7D6F008A28578
:105160009386061801461545D131B776DC02938641
:1051700006C00146814521455539B776DC02938644
:1051800006C00146814525455531B7D6F0089386BE
:1051900006180146814519455139B7D6F00893865E
:1051A0000618014681451D4551311145B13BB7E710
:1051B0001B43938737E8B334F50201441949C9808A
:1051C0002285A6850504F13BE31C24FFB24022445E
:1051D00092440249410182809395F5690B46751D01
:1051E0008BC6751D630C0612638E0612131795008D
:1051F000939795009302F00F630E560E6386561038
:10520000198399831317A7299397A7296354050036
:105210003307E040654363D40500B307F04063679C
:10522000D606B305D64063FF650E33D5B740B31538
:10523000B500B3B5F5004D8D2A9775C79356F74164
:10524000358F158F131507603317A7006D15098E5D
:10525000135587481307F7072A9763550702637AA0
:1052600056003376D6085E06060725833305C70049
:105270008280635506001395F601828033F5D208CB
:105280005E05828005830506D9BF01003385C640CF
:1052900063796508B355A7403395A5003335E5001C
:1052A000C98DAE97C9C313D6F741B18F918F93952E
:1052B0000760B397B700ED158D8E93D58748938718
:1052C000F707AE9763D5070263FA5600B3F6C60830
:1052D000DE068607A5833385D700828063D5060066
:1052E0001315F601828033F5C2085E05828085833E
:1052F0008506D9BF05EB6397560285E7B347B5002E
:10530000FD838DC37D55828089EF631C560019EBA8
:105310003347B5007D8319C77D55828099E2DD81D1
:10532000DE052E85828001458280000063D4050061
:105330001315F5690B46751D8BC6751D9302F00F8D
:1053400025CEC1C6630D56086384560A1358F5412D
:1053500013178500939785001317F7299397F7295B
:10536000B305F7023337F702131507603317A700A9
:10537000098E3696130626F86359C002B335B0007D
:105380004D8F935587482E971307F707635C0700E7
:1053900063505602337606095E06060725833305F9
:1053A000C700828005830506E5B71315F8018280E2
:1053B00033F502095E05828063905602939795004B
:1053C00099C32E8582807D55828063175600931580
:1053D000950091E17D5582807D817E058280131745
:1053E00095006DFFE39C56FE93979500F9FB828034
:1053F00093979500F9F77D8533F5A2085E058280C5
:1054000001006375D600B2952380A500828082805A
:1054100079714AD04ECE52CC56CA5AC862C466C2BE
:105420006AC0C68C06D622D426D293F838002A89C0
:105430002E8AB289B68A3A8B3E8D428C63850806E5
:10544000D1C75EC6B2843304AB01B38B840003457D
:10545000F4FF33868B40D686D2857D140299E318FB
:105460008BFEB24BEA9493FC2C0063800C02B38950
:10547000344163FC89012686D686D2851305000255
:10548000850985040299E3E889FFB2502254025944
:10549000F249624AD24A424B224C924C024D268536
:1054A00092544561828063F50703B304F840B294D7
:1054B00032842286D6860504D2851305000202991D
:1054C000E31994FEE3030DFC5EC6B5BFB28461BF71
:1054D000B284CDBFA24E3E83C28F93F72E00024E00
:1054E0001248E9E7930703FEB337F000333FC301E7
:1054F00033FFE70193F21E00630F080E638D020E67
:1055000063960F0093F3CE00638303007D18630F4F
:105510000F06130F00030503B3076700A38FE7FF10
:10552000930703FEB337F0006373C301EDF7639F86
:10553000020493F70E01B9C393F70E4089E763099C
:105540006E0C6307030DC1476389F80EF918639465
:10555000080E930703FEE5C3930713003A939308DD
:1055600020062300130193080002638D17011383A3
:105570001700BA97930800032380170193070002CE
:10558000631DF30493070002F68859B563700303A3
:1055900091CF130F000311A091CB0503B307670050
:1055A000A38FE7FF930703FEE36803FF93F70E0162
:1055B000F1D793F70E40C1FBE31303F8C1476387AC
:1055C000F80E89476392F80C9307200693080003AE
:1055D0002300F700A3001701094363910F0293F71B
:1055E0004E00BDCBB3086700130EB0029307130043
:1055F0002380C80151BFE31E0FF04DBFB308670001
:10560000130ED0022380C80193071300F68809B552
:105610009307F3FFD1C3138E08FF631F0E06930891
:10562000E3FF13FE0E02BA98631A0E08130E8007EA
:105630002380C8013DBF9A873DB793F70E028DCBFB
:1056400093070002E300F3F4930713003A939308DF
:1056500080052300130101BF93F88E009A87E3852C
:1056600008F23A939308000285072300130129BF2B
:1056700093070002E308F3F0930713003A939308AB
:10568000800723001301C5B5930700032300F7002B
:105690000543E3860FF49DB7414E6386C803094E68
:1056A000E399C8ED9A883E83C6874DBD93D75E487F
:1056B000B307F040819B9387870709BF130E8005CE
:1056C0002380C8017DB593F80E02638608009A888E
:1056D0003E83C687A5BF9A883E83C68745B711E13A
:1056E00082806F1060741971CAD8D2D4D6D2DECE3F
:1056F0002A892E8AB28BB68A3A85BE853A86BE86BC
:10570000A2DCA6DACED6DAD0E2CC86DE0A4BBA84A8
:105710003E84428CC689EF40502E63120546B7C7BF
:10572000002003A687D983A6C7D92685A285EF4086
:10573000400663430520B7C7002003A607DA83A607
:1057400047DA2685A285EF307079634CA014B7C77D
:10575000002003A687D883A6C7D82685A285EF3068
:10576000F077634BA010B7C7002003A687DA83A6A3
:10577000C7DA2685A285EF40C001634F050E268556
:10578000A28501468146EEC6E6CAEAC8EF4060003F
:10579000814D6345051893770B40639F071237C708
:1057A0000020832607D9032747D9194CB68C3A8D98
:1057B0001810A28526853ACE3ECCEF4050272ACA43
:1057C000EF40D0322A86AE862685A285EF40C049BA
:1057D0006686EA86EF4040072EC62AC4EF40302B8B
:1057E0002AC8EF40B0352A86AE862245B245EF4042
:1057F000A047B7C7002003A607DB83A647DB2AC460
:105800002EC6EF30B06DC2485248E247724763552A
:10581000A024850846853ACC3ECA42C846C4EF401B
:10582000F0316686EA86EF30706BA2484248D24774
:105830006247634405000508814863090C1637D5A3
:10584000CCCC1305D5CC13030002254E6384672A04
:1058500033B6A8028507B305F7007D1C0D82B34659
:10586000C6208606B386D84093860603A38FD5FE4E
:1058700063721E27B288D9BFA28766545AC1F650F8
:10588000065B2687CE88D654B6596288D686664C83
:10589000965A5E86D285F64B265A4A854659096144
:1058A00049A693774B00ADE737B70020130747FBB6
:1058B0008D476654F650D654664CDA884E88065B9F
:1058C000B659D6865E86965AF64BD2854A85265AB2
:1058D000465909616FF0DFB3A5468147181093055B
:1058E000000363F586338507B306F700A38FB6FE82
:1058F0007D1C938607FE13067CFF91C26DF6B7C62A
:10590000002003A686D883A6C6D8B28C368D55B59E
:1059100037B700201307C7FA914761BF2686A286D2
:1059200001458145EF40403493770B40AA842E8493
:10593000854DE38607E64DB7E6CA93773B00937C37
:105940002B00DE84638C071C37BC0020130CCCFBBF
:105950006284330B9400711C0345340033068B4082
:10596000D686D2857D140299E31884FF9104638161
:105970000C02B387744163FD37012686D686D28533
:105980001305000285040299B3877441E3E737FFEA
:10599000F6506654D64C4659B659265A965A065B66
:1059A000F64B664C2685D6540961828042853ACAF8
:1059B00042C43EC8EF4090132A86AE862685A28553
:1059C000EF40802AB7C7002003A407DB83A447DB8E
:1059D0002A8C2286A686AE8CEF30B05B2248C24766
:1059E0005247634D05002286A6866285E685EF3024
:1059F000F04E2248C2475247635EA0103765666684
:105A000013057566930800021DA03316A8028507CA
:105A1000B305F7000986158EB346C6208606B30681
:105A2000D84093860603A38FD5FE328831CE935695
:105A3000F841E39C17FD93763B0005466382C61050
:105A4000DA884E88D6865E86D2854A85EFF05F9CDE
:105A5000AA84464DB64D2DBF3ECCB7C7002003A645
:105A600007DB83A647DB2245B2453ACE46CA42C889
:105A7000EF3030524248D248E2477247E34F05DAEE
:105A800063940808850855BB93763B000546638BF5
:105A9000C61493060002E385D7FA1306D002639575
:105AA0000D0293764B0099EE93768B00D1DA1306B4
:105AB0000002B386C700B305C100AE962380C6FEC0
:105AC0008507BDBF1306B002B38627002380C60238
:105AD0008507BDB7638067023E9C930500031306EC
